:1000000012C024C023C022C021C020C01FC01EC0F7
:100010001DC01CC01BC01AC019C018C017C016C014
:1000200015C014C013C011241FBECFE5D4E0DEBF3D
:10003000CDBF10E0A0E6B0E0E8EAF0E002C0059035
:100040000D92A236B107D9F70AD02CC0D9CF9A9910
:1000500005C0E0916000F09161000995089583E08A
:1000600084BB15BA85B3816085BB85B38D7F85BBA5
:100070002FEF8EE994E2215080409040E1F700C0DC
:10008000000085B38E7F85BB85B3826085BB2FEF73
:100090008EE994E2215080409040E1F700C00000DA
:0800A000D6DFE0CFF894FFCF9A
:0200A80000183E
:00000001FF
