:101800003FC079C158C057C056C055C054C053C01E
:1018100052C051C050C04FC04EC04DC04CC04BC054
:101820004AC049C048C009021200010100800A09EB
:10183000040000000000000012011001FF00000879
:10184000C016DC050001010200011603410056002C
:10185000520055005300420042006F006F007400B8
:101860001C037700770077002E0066006900730084
:10187000630068006C002E00640065000403090426
:1018800011241FBECFE5D4E0DEBFCDBF10E0A0E63F
:10189000B0E0E0E9FEE102C005900D92A236B1078A
:1018A000D9F720E0A2E6B0E001C01D92AC39B20742
:1018B000E1F7D9D2EBC2A4CFCF93DF93609182003E
:1018C000635067FD90C080917F00CCE0D0E0C81BE2
:1018D000D109CA57DF4F80917E008D3209F0D0C008
:1018E000683009F07EC083EC809372008AE58093B3
:1018F0006100109262008881807671F0CE0135D24D
:101900008F3F09F466C09F81911169C09E8198172D
:1019100008F065C0892F63C02A8110927B009981ED
:1019200091110AC010927C002BE730E082E03093E6
:10193000810020938000E7CF953029F42093830025
:101940002BE730E0F4CF963099F59B81913059F434
:1019500088E398E1909381008093800082E190E495
:1019600090936200D0CF923019F486E298E1F2CFE2
:101970009330A9F7211108C08CE798E1909381007A
:101980008093800084E0EBCF213041F480E698E141
:1019900090938100809380008CE1E1CF2230F9F6B2
:1019A0008AE498E1909381008093800086E1D7CF0C
:1019B000983059F0993019F420938500C1CF81E017
:1019C0009A3009F4BDCF80E0BBCF25E830E081E05C
:1019D000AECF988197FD8E8190E8909362008093BE
:1019E0006000109282008091610084FF3CC0809171
:1019F00060008F3FC1F1C82F893008F0C8E0982FF0
:101A00009C1B909360009091720028E8922790931D
:101A100072008823E1F04091800050918100809114
:101A2000620086FF3FC0A3E7B0E0FA019C2F8491DB
:101A30008D9331969150D9F72FEF2C0F30E02F5F17
:101A40003F4F240F351F30938100209380006C2F6F
:101A500083E790E04CD0CC5FCC3019F08FEF8093CF
:101A60006000C093610084E190B3957031F48150BF
:101A7000D9F71092830010927D00DF91CF910895E5
:101A80008091620087FFADCFCE01A5D18F3F21F4B9
:101A90008EE180936100A5CF882309F4A2CF109234
:101AA00060009FCFDA01E3E7F0E09C2F8D918193F6
:101AB0009150E1F7C1CF85B7836085BF8BB7806454
:101AC0008BBF0895A82FB92F80E090E041E050EA45
:101AD000609530E009C02D9182279795879510F089
:101AE00084279527305EC8F36F5FA8F30895EADF77
:101AF0008D939D930895CF93CFB7CF93C395809B3C
:101B0000E9F7809B09C0809B07C0809B05C0809B34
:101B100003C0809B01C0A1C0DF93C0917F00DD277F
:101B2000CA57DF4F809B02C0DF91EBCF2F930F93FB
:101B30001F9300B32FEF00FB20F94F933F9310B397
:101B40004FEF012700FB21F93BE031C04E7F012F11
:101B500010B3216028C0102F4D7F2260000000B319
:101B600029C04B7F2460012F000010B32BC010B39D
:101B7000477F28602AC04F7E00B320612CC04F7D74
:101B800010B320622FC04F7B00B3206432C04227C5
:101B900000B349934FEF0000102710FB20F910B35A
:101BA0001570C9F1297F91F2012700FB21F900B3DB
:101BB000237F89F2315058F1102710FB22F910B31E
:101BC000277E79F2012700FB23F92F7C81F200B3F5
:101BD000102710FB24F92F7971F200C010B30127F0
:101BE00000FB25F92F7359F200C000B3102710FB3A
:101BF00026F9223040F200C010B3012700FB27F97C
:101C0000243028F64F77206810B30000F9CF10E495
:101C10001ABF002717C03B503195C31BD04010E4BA
:101C20001ABF0881033CE9F00B34D9F020917D0004
:101C30001981110F1213EDCF093641F10D3211F058
:101C4000013E39F7009384003F914F911F910F910E
:101C50002F91DF91CAB7C6FD51CFCF91CFBFCF91A2
:101C6000189520918400222379F31091820011238A
:101C700011F5343012F13093820020937E001091E0
:101C80007F003BE0311B30937F0017C00091820042
:101C900001308CF40AE53091610034FD10C00093EE
:101CA0006100C2E7D0E00FC02795A8F45150A9F415
:101CB000220F0000F9CF4AE503C042ED01C0432FD7
:101CC000C4E1D0E032E011B31560909A11BB02B3C9
:101CD00020E415E05F93012756E002BB279520F42E
:101CE000515021F4220FF9CF012756E000003B5A52
:101CF00002BBD0F2279528F4515029F4220F00009E
:101D0000F9CF012756E0279502BB20F4515021F46A
:101D1000220FF9CF012756E02991332302BB21F688
:101D20000A7F10918300110FC651D04002BB11F001
:101D300010937D0010E41ABF016011B31A7F402F89
:101D40004A7F5F9100C000C002BB11BB42BB7CCF89
:101D5000F89481E180935700E89581E08BBF1BBE2A
:101D6000E0916300F09164000994FC01918191304D
:101D700019F4EEDF80E01FC0923021F581E08093FE
:101D8000690082819381909368008093670010922C
:101D9000660010926500E199FECFF894E09167002B
:101DA000F091680083E080935700E895789407B637
:101DB00000FCFDCF8FEF2AE630E0309381002093C6
:101DC000800008959330B1F610926A0080E4809309
:101DD0006B0082E0F0CFAC018091690090E071E08F
:101DE000813009F43BC08FEF0895F894E0916700CB
:101DF000F09168002091650030916600E20FF31FBA
:101E0000DA01A90FB11D11962C9111973C9123274E
:101E100032272327090170935700E89511247894FD
:101E200020916500309166002E5F3F4F3093660031
:101E3000209365002034310580F0F894E09167002C
:101E4000F091680095E090935700E895789407B674
:101E500000FCFDCF1092690008959E5F961708F46C
:101E6000C4CF80E008958FEF88BB17BA85BB14BA42
:101E70008AEF82BB82E081BB9A996ADF81E08BBFE7
:101E800082E08BBF18DE789417DDFECFF894FFCF89
:021E9000FF5AF7
:0400000300001800E1
:00000001FF
